{
  "contractName": "SupplyChain",
  "abi": [
    {
      "inputs": [],
      "stateMutability": "payable",
      "type": "constructor",
      "payable": true
    },
    {
      "anonymous": false,
      "inputs": [
        {
          "indexed": true,
          "internalType": "address",
          "name": "addr",
          "type": "address"
        }
      ],
      "name": "ConsumerAdded",
      "type": "event"
    },
    {
      "anonymous": false,
      "inputs": [
        {
          "indexed": true,
          "internalType": "address",
          "name": "addr",
          "type": "address"
        }
      ],
      "name": "ConsumerRemoved",
      "type": "event"
    },
    {
      "anonymous": false,
      "inputs": [
        {
          "indexed": true,
          "internalType": "address",
          "name": "addr",
          "type": "address"
        }
      ],
      "name": "DistributorAdded",
      "type": "event"
    },
    {
      "anonymous": false,
      "inputs": [
        {
          "indexed": true,
          "internalType": "address",
          "name": "addr",
          "type": "address"
        }
      ],
      "name": "DistributorRemoved",
      "type": "event"
    },
    {
      "anonymous": false,
      "inputs": [
        {
          "indexed": true,
          "internalType": "address",
          "name": "account",
          "type": "address"
        }
      ],
      "name": "FarmerAdded",
      "type": "event"
    },
    {
      "anonymous": false,
      "inputs": [
        {
          "indexed": true,
          "internalType": "address",
          "name": "account",
          "type": "address"
        }
      ],
      "name": "FarmerRemoved",
      "type": "event"
    },
    {
      "anonymous": false,
      "inputs": [
        {
          "indexed": false,
          "internalType": "uint256",
          "name": "upc",
          "type": "uint256"
        }
      ],
      "name": "ForSale",
      "type": "event"
    },
    {
      "anonymous": false,
      "inputs": [
        {
          "indexed": false,
          "internalType": "uint256",
          "name": "upc",
          "type": "uint256"
        }
      ],
      "name": "Harvested",
      "type": "event"
    },
    {
      "anonymous": false,
      "inputs": [
        {
          "indexed": false,
          "internalType": "uint256",
          "name": "upc",
          "type": "uint256"
        }
      ],
      "name": "Packed",
      "type": "event"
    },
    {
      "anonymous": false,
      "inputs": [
        {
          "indexed": false,
          "internalType": "uint256",
          "name": "upc",
          "type": "uint256"
        }
      ],
      "name": "Processed",
      "type": "event"
    },
    {
      "anonymous": false,
      "inputs": [
        {
          "indexed": false,
          "internalType": "uint256",
          "name": "upc",
          "type": "uint256"
        }
      ],
      "name": "Purchased",
      "type": "event"
    },
    {
      "anonymous": false,
      "inputs": [
        {
          "indexed": false,
          "internalType": "uint256",
          "name": "upc",
          "type": "uint256"
        }
      ],
      "name": "Received",
      "type": "event"
    },
    {
      "anonymous": false,
      "inputs": [
        {
          "indexed": true,
          "internalType": "address",
          "name": "addr",
          "type": "address"
        }
      ],
      "name": "RetailerAdded",
      "type": "event"
    },
    {
      "anonymous": false,
      "inputs": [
        {
          "indexed": true,
          "internalType": "address",
          "name": "addr",
          "type": "address"
        }
      ],
      "name": "RetailerRemoved",
      "type": "event"
    },
    {
      "anonymous": false,
      "inputs": [
        {
          "indexed": false,
          "internalType": "uint256",
          "name": "upc",
          "type": "uint256"
        }
      ],
      "name": "Shipped",
      "type": "event"
    },
    {
      "anonymous": false,
      "inputs": [
        {
          "indexed": false,
          "internalType": "uint256",
          "name": "upc",
          "type": "uint256"
        }
      ],
      "name": "Sold",
      "type": "event"
    },
    {
      "anonymous": false,
      "inputs": [
        {
          "indexed": true,
          "internalType": "address",
          "name": "oldOwner",
          "type": "address"
        },
        {
          "indexed": true,
          "internalType": "address",
          "name": "newOwner",
          "type": "address"
        }
      ],
      "name": "TransferOwnership",
      "type": "event"
    },
    {
      "inputs": [
        {
          "internalType": "address",
          "name": "account",
          "type": "address"
        }
      ],
      "name": "addConsumer",
      "outputs": [],
      "stateMutability": "nonpayable",
      "type": "function"
    },
    {
      "inputs": [
        {
          "internalType": "address",
          "name": "account",
          "type": "address"
        }
      ],
      "name": "addDistributor",
      "outputs": [],
      "stateMutability": "nonpayable",
      "type": "function"
    },
    {
      "inputs": [
        {
          "internalType": "address",
          "name": "account",
          "type": "address"
        }
      ],
      "name": "addFarmer",
      "outputs": [],
      "stateMutability": "nonpayable",
      "type": "function"
    },
    {
      "inputs": [
        {
          "internalType": "address",
          "name": "account",
          "type": "address"
        }
      ],
      "name": "addRetailer",
      "outputs": [],
      "stateMutability": "nonpayable",
      "type": "function"
    },
    {
      "inputs": [
        {
          "internalType": "address",
          "name": "account",
          "type": "address"
        }
      ],
      "name": "isConsumer",
      "outputs": [
        {
          "internalType": "bool",
          "name": "",
          "type": "bool"
        }
      ],
      "stateMutability": "view",
      "type": "function",
      "constant": true
    },
    {
      "inputs": [
        {
          "internalType": "address",
          "name": "account",
          "type": "address"
        }
      ],
      "name": "isDistributor",
      "outputs": [
        {
          "internalType": "bool",
          "name": "",
          "type": "bool"
        }
      ],
      "stateMutability": "view",
      "type": "function",
      "constant": true
    },
    {
      "inputs": [
        {
          "internalType": "address",
          "name": "account",
          "type": "address"
        }
      ],
      "name": "isFarmer",
      "outputs": [
        {
          "internalType": "bool",
          "name": "",
          "type": "bool"
        }
      ],
      "stateMutability": "view",
      "type": "function",
      "constant": true
    },
    {
      "inputs": [],
      "name": "isOwner",
      "outputs": [
        {
          "internalType": "bool",
          "name": "",
          "type": "bool"
        }
      ],
      "stateMutability": "view",
      "type": "function",
      "constant": true
    },
    {
      "inputs": [
        {
          "internalType": "address",
          "name": "account",
          "type": "address"
        }
      ],
      "name": "isRetailer",
      "outputs": [
        {
          "internalType": "bool",
          "name": "",
          "type": "bool"
        }
      ],
      "stateMutability": "view",
      "type": "function",
      "constant": true
    },
    {
      "inputs": [],
      "name": "owner",
      "outputs": [
        {
          "internalType": "address",
          "name": "",
          "type": "address"
        }
      ],
      "stateMutability": "view",
      "type": "function",
      "constant": true
    },
    {
      "inputs": [],
      "name": "renounceConsumer",
      "outputs": [],
      "stateMutability": "nonpayable",
      "type": "function"
    },
    {
      "inputs": [],
      "name": "renounceDistributor",
      "outputs": [],
      "stateMutability": "nonpayable",
      "type": "function"
    },
    {
      "inputs": [],
      "name": "renounceFarmer",
      "outputs": [],
      "stateMutability": "nonpayable",
      "type": "function"
    },
    {
      "inputs": [],
      "name": "renounceOwnership",
      "outputs": [],
      "stateMutability": "nonpayable",
      "type": "function"
    },
    {
      "inputs": [],
      "name": "renounceRetailer",
      "outputs": [],
      "stateMutability": "nonpayable",
      "type": "function"
    },
    {
      "inputs": [
        {
          "internalType": "address",
          "name": "newOwner",
          "type": "address"
        }
      ],
      "name": "transferOwnership",
      "outputs": [],
      "stateMutability": "nonpayable",
      "type": "function"
    },
    {
      "inputs": [
        {
          "internalType": "uint256",
          "name": "_upc",
          "type": "uint256"
        },
        {
          "internalType": "address",
          "name": "_originFarmerID",
          "type": "address"
        },
        {
          "internalType": "string",
          "name": "_originFarmName",
          "type": "string"
        },
        {
          "internalType": "string",
          "name": "_originFarmInformation",
          "type": "string"
        },
        {
          "internalType": "string",
          "name": "_originFarmLatitude",
          "type": "string"
        },
        {
          "internalType": "string",
          "name": "_originFarmLongitude",
          "type": "string"
        },
        {
          "internalType": "string",
          "name": "_productNotes",
          "type": "string"
        }
      ],
      "name": "harvestItem",
      "outputs": [],
      "stateMutability": "nonpayable",
      "type": "function"
    },
    {
      "inputs": [
        {
          "internalType": "uint256",
          "name": "_upc",
          "type": "uint256"
        }
      ],
      "name": "processItem",
      "outputs": [],
      "stateMutability": "nonpayable",
      "type": "function"
    },
    {
      "inputs": [
        {
          "internalType": "uint256",
          "name": "_upc",
          "type": "uint256"
        }
      ],
      "name": "packItem",
      "outputs": [],
      "stateMutability": "nonpayable",
      "type": "function"
    },
    {
      "inputs": [
        {
          "internalType": "uint256",
          "name": "_upc",
          "type": "uint256"
        },
        {
          "internalType": "uint256",
          "name": "_price",
          "type": "uint256"
        }
      ],
      "name": "sellItem",
      "outputs": [],
      "stateMutability": "nonpayable",
      "type": "function"
    },
    {
      "inputs": [
        {
          "internalType": "uint256",
          "name": "_upc",
          "type": "uint256"
        }
      ],
      "name": "buyItem",
      "outputs": [],
      "stateMutability": "payable",
      "type": "function",
      "payable": true
    },
    {
      "inputs": [
        {
          "internalType": "uint256",
          "name": "_upc",
          "type": "uint256"
        }
      ],
      "name": "shipItem",
      "outputs": [],
      "stateMutability": "nonpayable",
      "type": "function"
    },
    {
      "inputs": [
        {
          "internalType": "uint256",
          "name": "_upc",
          "type": "uint256"
        }
      ],
      "name": "receiveItem",
      "outputs": [],
      "stateMutability": "nonpayable",
      "type": "function"
    },
    {
      "inputs": [
        {
          "internalType": "uint256",
          "name": "_upc",
          "type": "uint256"
        }
      ],
      "name": "purchaseItem",
      "outputs": [],
      "stateMutability": "nonpayable",
      "type": "function"
    },
    {
      "inputs": [
        {
          "internalType": "uint256",
          "name": "_upc",
          "type": "uint256"
        }
      ],
      "name": "fetchItemBufferOne",
      "outputs": [
        {
          "internalType": "uint256",
          "name": "itemSKU",
          "type": "uint256"
        },
        {
          "internalType": "uint256",
          "name": "itemUPC",
          "type": "uint256"
        },
        {
          "internalType": "address",
          "name": "ownerID",
          "type": "address"
        },
        {
          "internalType": "address",
          "name": "originFarmerID",
          "type": "address"
        },
        {
          "internalType": "string",
          "name": "originFarmName",
          "type": "string"
        },
        {
          "internalType": "string",
          "name": "originFarmInformation",
          "type": "string"
        },
        {
          "internalType": "string",
          "name": "originFarmLatitude",
          "type": "string"
        },
        {
          "internalType": "string",
          "name": "originFarmLongitude",
          "type": "string"
        }
      ],
      "stateMutability": "view",
      "type": "function",
      "constant": true
    },
    {
      "inputs": [
        {
          "internalType": "uint256",
          "name": "_upc",
          "type": "uint256"
        }
      ],
      "name": "fetchItemBufferTwo",
      "outputs": [
        {
          "internalType": "uint256",
          "name": "itemSKU",
          "type": "uint256"
        },
        {
          "internalType": "uint256",
          "name": "itemUPC",
          "type": "uint256"
        },
        {
          "internalType": "uint256",
          "name": "productID",
          "type": "uint256"
        },
        {
          "internalType": "string",
          "name": "productNotes",
          "type": "string"
        },
        {
          "internalType": "uint256",
          "name": "productPrice",
          "type": "uint256"
        },
        {
          "internalType": "uint256",
          "name": "itemState",
          "type": "uint256"
        },
        {
          "internalType": "address",
          "name": "distributorID",
          "type": "address"
        },
        {
          "internalType": "address",
          "name": "retailerID",
          "type": "address"
        },
        {
          "internalType": "address",
          "name": "consumerID",
          "type": "address"
        }
      ],
      "stateMutability": "view",
      "type": "function",
      "constant": true
    }
  ],
  "bytecode": "0x60806040819052600080546001600160a01b031916339081178255917f5c486528ec3e3f0ea91181cff8116f02bfa350e03b8b6f12e00765adbb5af85c908290a36200004b336200007c565b6200005633620000ce565b620000613362000120565b6200006c3362000172565b600160068190556005556200024a565b62000097816001620001c460201b620014c41790919060201c565b6040516001600160a01b038216907f2e0ded4123377a3c2bc9a26f1717655a129e2f20752924d42e730ec89c83dbd090600090a250565b620000e9816002620001c460201b620014c41790919060201c565b6040516001600160a01b038216907fddbf200aa634dc3fb81cfd68583dd1040d1c751d335e1d86b631bde3e977fea890600090a250565b6200013b816003620001c460201b620014c41790919060201c565b6040516001600160a01b038216907f71ae26cad02663e3d92efd6ec56031a80d74a20c0ab4183faa8bf262261c9baa90600090a250565b6200018d816004620001c460201b620014c41790919060201c565b6040516001600160a01b038216907f28b26e7a3d20aedbc5f8f2ebf7da671c0491723a2b78f47a097b0e46dee0714290600090a250565b6001600160a01b038116620001d857600080fd5b620001e4828262000214565b15620001ef57600080fd5b6001600160a01b0316600090815260209190915260409020805460ff19166001179055565b60006001600160a01b0382166200022a57600080fd5b506001600160a01b03166000908152602091909152604090205460ff1690565b611e0e806200025a6000396000f3fe6080604052600436106101815760003560e01c80638da5cb5b116100d1578063bdd8a6a81161008a578063e7fb74c711610064578063e7fb74c714610457578063f2fde38b1461046a578063f30fc4801461048a578063f61c899a146104aa57600080fd5b8063bdd8a6a814610402578063d38ea5bf14610422578063db0e6a2f1461044257600080fd5b80638da5cb5b1461033a5780638ec4f505146103625780638f0c86fa146103825780638f32d59b146103a2578063a26be999146103c2578063b9429069146103e257600080fd5b806366225ff91161013e57806377c459131161011857806377c45913146102b157806380c3f96d146102e557806380fc0ce414610305578063834ff7391461031a57600080fd5b806366225ff914610247578063715018a61461027c5780637250e2241461029157600080fd5b8063112940f9146101865780632d923561146101a857806349dae766146101c85780635da09b88146101e857806361e6982d1461021d578063644241db14610232575b600080fd5b34801561019257600080fd5b506101a66101a13660046118c0565b6104ca565b005b3480156101b457600080fd5b506101a66101c33660046118e2565b61052a565b3480156101d457600080fd5b506101a66101e3366004611904565b6105fe565b3480156101f457600080fd5b506102086102033660046118c0565b6106ef565b60405190151581526020015b60405180910390f35b34801561022957600080fd5b506101a6610702565b34801561023e57600080fd5b506101a661070d565b34801561025357600080fd5b50610267610262366004611904565b610716565b60405161021499989796959493929190611963565b34801561028857600080fd5b506101a6610850565b34801561029d57600080fd5b506101a66102ac3660046118c0565b6108b1565b3480156102bd57600080fd5b506102d16102cc366004611904565b6108df565b6040516102149897969594939291906119c3565b3480156102f157600080fd5b506101a66103003660046118c0565b610b95565b34801561031157600080fd5b506101a6610bc3565b34801561032657600080fd5b506102086103353660046118c0565b610bcc565b34801561034657600080fd5b506000546040516001600160a01b039091168152602001610214565b34801561036e57600080fd5b506101a661037d3660046118c0565b610bd9565b34801561038e57600080fd5b5061020861039d3660046118c0565b610c31565b3480156103ae57600080fd5b506000546001600160a01b03163314610208565b3480156103ce57600080fd5b506101a66103dd366004611904565b610c3e565b3480156103ee57600080fd5b506102086103fd3660046118c0565b610d79565b34801561040e57600080fd5b506101a661041d366004611aeb565b610d86565b34801561042e57600080fd5b506101a661043d366004611904565b610f96565b34801561044e57600080fd5b506101a66110d5565b6101a6610465366004611904565b6110de565b34801561047657600080fd5b506101a66104853660046118c0565b6112c2565b34801561049657600080fd5b506101a66104a5366004611904565b6112e2565b3480156104b657600080fd5b506101a66104c5366004611904565b6113cc565b6104d333610bcc565b61051e5760405162461bcd60e51b81526020600482015260176024820152762cb7ba903430bb32903a379031329021b7b739bab6b2b960491b60448201526064015b60405180910390fd5b61052781611510565b50565b8160026000828152600760208190526040909120600b015460ff169081111561055557610555611bd7565b146105a25760405162461bcd60e51b815260206004820152601960248201527f4974656d207374617465206d757374206265205061636b6564000000000000006044820152606401610515565b600083815260076020908152604091829020600b8101805460ff19166003179055600a0184905590518481527fa96ae0fc3224ebd79eebfe54bd130cc9cb94416cddd1f2386115e00b72532468910160405180910390a1505050565b80600080828152600760208190526040909120600b015460ff169081111561062857610628611bd7565b146106755760405162461bcd60e51b815260206004820152601c60248201527f4974656d207374617465206d75737420626520486172766573746564000000006044820152606401610515565b61067e33610d79565b61069a5760405162461bcd60e51b815260040161051590611bed565b600082815260076020908152604091829020600b01805460ff1916600117905590518381527f5afe3b1bf87069693c075da5c22a98d63d1aef98a30dbbe538d0781a98b77ee591015b60405180910390a15050565b60006106fc600383611552565b92915050565b61070b33611587565b565b61070b336115c9565b60008181526007602052604081208054600182015460088301546009909301805492949193926060929182918291829182919061075290611c1c565b80601f016020809104026020016040519081016040528092919081815260200182805461077e90611c1c565b80156107cb5780601f106107a0576101008083540402835291602001916107cb565b820191906000526020600020905b8154815290600101906020018083116107ae57829003601f168201915b50505060008d8152600760208190526040909120600a810154600b90910154949a50985060ff909316928311159150610808905057610808611bd7565b60008b8152600760205260409020600b810154600c820154600d909201549296506001600160a01b036101009091048116955090811693501690509193959799909294969850565b6000546001600160a01b0316331461086757600080fd5b600080546040516001600160a01b03909116907f5c486528ec3e3f0ea91181cff8116f02bfa350e03b8b6f12e00765adbb5af85c908390a3600080546001600160a01b0319169055565b6108ba33610c31565b6108d65760405162461bcd60e51b815260040161051590611c56565b6105278161160b565b6000818152600760205260409020805460018201546002830154600384015460049094018054939492936001600160a01b03928316939092169160609182918291829161092b90611c1c565b80601f016020809104026020016040519081016040528092919081815260200182805461095790611c1c565b80156109a45780601f10610979576101008083540402835291602001916109a4565b820191906000526020600020905b81548152906001019060200180831161098757829003601f168201915b50505060008c81526007602052604090206005018054939750926109ca92509050611c1c565b80601f01602080910402602001604051908101604052809291908181526020018280546109f690611c1c565b8015610a435780601f10610a1857610100808354040283529160200191610a43565b820191906000526020600020905b815481529060010190602001808311610a2657829003601f168201915b50505060008c8152600760205260409020600601805493965092610a6992509050611c1c565b80601f0160208091040260200160405190810160405280929190818152602001828054610a9590611c1c565b8015610ae25780601f10610ab757610100808354040283529160200191610ae2565b820191906000526020600020905b815481529060010190602001808311610ac557829003601f168201915b50505050509150600760008a81526020019081526020016000206007018054610b0a90611c1c565b80601f0160208091040260200160405190810160405280929190818152602001828054610b3690611c1c565b8015610b835780601f10610b5857610100808354040283529160200191610b83565b820191906000526020600020905b815481529060010190602001808311610b6657829003601f168201915b50505050509050919395975091939597565b610b9e33610d79565b610bba5760405162461bcd60e51b815260040161051590611bed565b6105278161164d565b61070b3361168f565b60006106fc600483611552565b610be2336106ef565b610c285760405162461bcd60e51b81526020600482015260176024820152762cb7ba903430bb32903a37903132902932ba30b4b632b960491b6044820152606401610515565b610527816116d1565b60006106fc600283611552565b8060056000828152600760208190526040909120600b015460ff1690811115610c6957610c69611bd7565b14610cb65760405162461bcd60e51b815260206004820152601a60248201527f4974656d207374617465206d75737420626520536869707065640000000000006044820152606401610515565b610cbf336106ef565b610d055760405162461bcd60e51b81526020600482015260176024820152762cb7ba903430bb32903a37903132902932ba30b4b632b960491b6044820152606401610515565b6000828152600760209081526040918290206002810180546001600160a01b031990811633908117909255600c830180549091169091179055600b01805460ff1916600617905590518381527fa8142743f8f70a4c26f3691cf4ed59718381fb2f18070ec52be1f1022d85555791016106e3565b60006106fc600183611552565b610d8e61180b565b600654808252602082018990523360408301526001600160a01b03881660608301526080820187905260a0820186905260c0820185905260e08201849052610dd69089611ca3565b610100820152610120810182905260008881526007602090815260409182902083518155908301516001820155908201516002820180546001600160a01b039283166001600160a01b031991821617909155606084015160038401805491909316911617905560808201518291906004820190610e539082611d05565b5060a08201516005820190610e689082611d05565b5060c08201516006820190610e7d9082611d05565b5060e08201516007820190610e929082611d05565b5061010082015160088201556101208201516009820190610eb39082611d05565b50610140820151600a820155610160820151600b8201805460ff19166001836007811115610ee357610ee3611bd7565b0217905550610180820151600b82018054610100600160a81b0319166101006001600160a01b03938416021790556101a0830151600c830180546001600160a01b03199081169284169290921790556101c090930151600d90920180549093169116179055600654610f56906001611ca3565b6006556040518881527f8e55ccfc9778ff8eba1646d765cf1982537ce0f9257054a17b48aad7452501839060200160405180910390a15050505050505050565b8060066000828152600760208190526040909120600b015460ff1690811115610fc157610fc1611bd7565b1461100e5760405162461bcd60e51b815260206004820152601b60248201527f4974656d207374617465206d75737420626520526563656976656400000000006044820152606401610515565b61101733610bcc565b61105d5760405162461bcd60e51b81526020600482015260176024820152762cb7ba903430bb32903a379031329021b7b739bab6b2b960491b6044820152606401610515565b6000828152600760208190526040909120600281018054336001600160a01b03199182168117909255600d830180549091169091179055600b01805460ff191660018302179055506040518281527f653d56639fee6b566a5c804764e9689de38645f0b733df89a36a1b7b42173dd8906020016106e3565b61070b33611713565b8060036000828152600760208190526040909120600b015460ff169081111561110957611109611bd7565b146111565760405162461bcd60e51b815260206004820152601a60248201527f4974656d207374617465206d75737420626520466f7253616c650000000000006044820152606401610515565b6000828152600760205260409020600a01543481111561117557600080fd5b8261117f33610c31565b61119b5760405162461bcd60e51b815260040161051590611c56565b600084815260076020526040808220600b810180546002830180546001600160a01b03191633908117909155610100026001600160a81b0319909116176004179055600a810154600390910154915190926001600160a01b039092169183156108fc02918491818181858888f1935050505015801561121e573d6000803e3d6000fd5b506040518581527f92f64ca637d023f354075a4be751b169c1a8a9ccb6d33cdd0cb35205439957279060200160405180910390a1506000818152600760205260408120600a0154906112708234611dc5565b600084815260076020526040808220600d015490519293506001600160a01b03169183156108fc0291849190818181858888f193505050501580156112b9573d6000803e3d6000fd5b50505050505050565b6000546001600160a01b031633146112d957600080fd5b61052781611755565b8060016000828152600760208190526040909120600b015460ff169081111561130d5761130d611bd7565b1461135a5760405162461bcd60e51b815260206004820152601c60248201527f4974656d207374617465206d7573742062652050726f636573736564000000006044820152606401610515565b61136333610d79565b61137f5760405162461bcd60e51b815260040161051590611bed565b600082815260076020908152604091829020600b01805460ff1916600217905590518381527f9b3b66e2380b690bae22c73ef1428fb0c91e72fe14a4b6defa13035214187aff91016106e3565b8060046000828152600760208190526040909120600b015460ff16908111156113f7576113f7611bd7565b146114445760405162461bcd60e51b815260206004820152601760248201527f4974656d207374617465206d75737420626520536f6c640000000000000000006044820152606401610515565b61144d33610c31565b6114695760405162461bcd60e51b815260040161051590611c56565b600082815260076020908152604091829020600b01805461010033026001600160a81b031990911617600517905590518381527ff00b9a5725b80c54016f42114f6ed7792d22eecb116011c4afac29c57bef6c9591016106e3565b6001600160a01b0381166114d757600080fd5b6114e18282611552565b156114eb57600080fd5b6001600160a01b0316600090815260209190915260409020805460ff19166001179055565b61151b6004826114c4565b6040516001600160a01b038216907f28b26e7a3d20aedbc5f8f2ebf7da671c0491723a2b78f47a097b0e46dee0714290600090a250565b60006001600160a01b03821661156757600080fd5b506001600160a01b03166000908152602091909152604090205460ff1690565b6115926004826117c3565b6040516001600160a01b038216907fe3f5ed5f263f1f01764a96edfc7d025f511ec5f7d180e8816908b78bcf74f09890600090a250565b6115d46002826117c3565b6040516001600160a01b038216907f126174f6cf49c81cdb4a9214c6b8f037bef55b4ec31e4fc776cea2a1c8a88d5990600090a250565b6116166002826114c4565b6040516001600160a01b038216907fddbf200aa634dc3fb81cfd68583dd1040d1c751d335e1d86b631bde3e977fea890600090a250565b6116586001826114c4565b6040516001600160a01b038216907f2e0ded4123377a3c2bc9a26f1717655a129e2f20752924d42e730ec89c83dbd090600090a250565b61169a6001826117c3565b6040516001600160a01b038216907fa5e0f060af304ab17dd418c7927e3da3ae7868189bf387aee09ab179ccc572f290600090a250565b6116dc6003826114c4565b6040516001600160a01b038216907f71ae26cad02663e3d92efd6ec56031a80d74a20c0ab4183faa8bf262261c9baa90600090a250565b61171e6003826117c3565b6040516001600160a01b038216907fdb7176e79cffef81cb01767dd0447a0b24bb72ca9778d4b245581086b2a7e6db90600090a250565b6001600160a01b03811661176857600080fd5b600080546040516001600160a01b03808516939216917f5c486528ec3e3f0ea91181cff8116f02bfa350e03b8b6f12e00765adbb5af85c91a3600080546001600160a01b0319166001600160a01b0392909216919091179055565b6001600160a01b0381166117d657600080fd5b6117e08282611552565b6117e957600080fd5b6001600160a01b0316600090815260209190915260409020805460ff19169055565b604051806101e00160405280600081526020016000815260200160006001600160a01b0316815260200160006001600160a01b03168152602001606081526020016060815260200160608152602001606081526020016000815260200160608152602001600081526020016000600781111561188957611889611bd7565b81526000602082018190526040820181905260609091015290565b80356001600160a01b03811681146118bb57600080fd5b919050565b6000602082840312156118d257600080fd5b6118db826118a4565b9392505050565b600080604083850312156118f557600080fd5b50508035926020909101359150565b60006020828403121561191657600080fd5b5035919050565b6000815180845260005b8181101561194357602081850181015186830182015201611927565b506000602082860101526020601f19601f83011685010191505092915050565b60006101208b83528a60208401528960408401528060608401526119898184018a61191d565b6080840198909852505060a08101949094526001600160a01b0392831660c085015290821660e08401521661010090910152949350505050565b888152602081018890526001600160a01b03878116604083015286166060820152610100608082018190526000906119fd8382018861191d565b905082810360a0840152611a11818761191d565b905082810360c0840152611a25818661191d565b905082810360e0840152611a39818561191d565b9b9a5050505050505050505050565b634e487b7160e01b600052604160045260246000fd5b600082601f830112611a6f57600080fd5b813567ffffffffffffffff80821115611a8a57611a8a611a48565b604051601f8301601f19908116603f01168101908282118183101715611ab257611ab2611a48565b81604052838152866020858801011115611acb57600080fd5b836020870160208301376000602085830101528094505050505092915050565b600080600080600080600060e0888a031215611b0657600080fd5b87359650611b16602089016118a4565b9550604088013567ffffffffffffffff80821115611b3357600080fd5b611b3f8b838c01611a5e565b965060608a0135915080821115611b5557600080fd5b611b618b838c01611a5e565b955060808a0135915080821115611b7757600080fd5b611b838b838c01611a5e565b945060a08a0135915080821115611b9957600080fd5b611ba58b838c01611a5e565b935060c08a0135915080821115611bbb57600080fd5b50611bc88a828b01611a5e565b91505092959891949750929550565b634e487b7160e01b600052602160045260246000fd5b6020808252601590820152742cb7ba903430bb32903a37903132902330b936b2b960591b604082015260600190565b600181811c90821680611c3057607f821691505b602082108103611c5057634e487b7160e01b600052602260045260246000fd5b50919050565b6020808252601a908201527f596f75206861766520746f206265204469737472696275746f72000000000000604082015260600190565b634e487b7160e01b600052601160045260246000fd5b808201808211156106fc576106fc611c8d565b601f821115611d0057600081815260208120601f850160051c81016020861015611cdd5750805b601f850160051c820191505b81811015611cfc57828155600101611ce9565b5050505b505050565b815167ffffffffffffffff811115611d1f57611d1f611a48565b611d3381611d2d8454611c1c565b84611cb6565b602080601f831160018114611d685760008415611d505750858301515b600019600386901b1c1916600185901b178555611cfc565b600085815260208120601f198616915b82811015611d9757888601518255948401946001909101908401611d78565b5085821015611db55787850151600019600388901b60f8161c191681555b5050505050600190811b01905550565b818103818111156106fc576106fc611c8d56fea264697066735822122052f7af075e40c9e4ab856dc4aa9f1a584819c0d9e181502b559873ca8aa5b01264736f6c63430008110033",
  "immutableReferences": {},
  "source": "// SPDX-License-Identifier: MIT\n\npragma solidity ^0.8.17;\n\nimport \"../coffeecore/Ownable.sol\";\nimport \"../coffeeaccesscontrol/FarmerRole.sol\";\nimport \"../coffeeaccesscontrol/DistributorRole.sol\";\nimport \"../coffeeaccesscontrol/RetailerRole.sol\";\nimport \"../coffeeaccesscontrol/ConsumerRole.sol\";\n\n// Define a contract 'Supplychain'\ncontract SupplyChain is Ownable, FarmerRole, DistributorRole, RetailerRole, ConsumerRole {\n\n  // Define 'owner'\n  // owner is defined in the Owenable contract\n\n  // Define a variable called 'upc' for Universal Product Code (UPC)\n  uint  upc;\n\n  // Define a variable called 'sku' for Stock Keeping Unit (SKU)\n  uint  sku;\n\n  // Define a public mapping 'items' that maps the UPC to an Item.\n  mapping (uint => Item) items;\n\n  // Define a public mapping 'itemsHistory' that maps the UPC to an array of TxHash, \n  // that track its journey through the supply chain -- to be sent from DApp.\n  mapping (uint => string[]) itemsHistory;\n  \n  // Define enum 'State' with the following values:\n  enum State \n  { \n    Harvested,  // 0\n    Processed,  // 1\n    Packed,     // 2\n    ForSale,    // 3\n    Sold,       // 4\n    Shipped,    // 5\n    Received,   // 6\n    Purchased   // 7\n\t}\n\n  State constant defaultState = State.Harvested;\n\n  // Define a struct 'Item' with the following fields:\n  struct Item {\n    uint    sku;  // Stock Keeping Unit (SKU)\n    uint    upc; // Universal Product Code (UPC), generated by the Farmer, goes on the package, can be verified by the Consumer\n    address ownerID;  // Metamask-Ethereum address of the current owner as the product moves through 8 stages\n    address originFarmerID; // Metamask-Ethereum address of the Farmer\n    string  originFarmName; // Farmer Name\n    string  originFarmInformation;  // Farmer Information\n    string  originFarmLatitude; // Farm Latitude\n    string  originFarmLongitude;  // Farm Longitude\n    uint    productID;  // Product ID potentially a combination of upc + sku\n    string  productNotes; // Product Notes\n    uint    productPrice; // Product Price\n    State   itemState;  // Product State as represented in the enum above\n    address distributorID;  // Metamask-Ethereum address of the Distributor\n    address retailerID; // Metamask-Ethereum address of the Retailer\n    address consumerID; // Metamask-Ethereum address of the Consumer\n  }\n\n  // Define 8 events with the same 8 state values and accept 'upc' as input argument\n  event Harvested(uint upc);\n  event Processed(uint upc);\n  event Packed(uint upc);\n  event ForSale(uint upc);\n  event Sold(uint upc);\n  event Shipped(uint upc);\n  event Received(uint upc);\n  event Purchased(uint upc);\n\n  // Define a modifer that checks to see if msg.sender == owner of the contract\n  // Inherited by the Ownable contract\n\n  // Define a modifer that verifies the Caller\n  modifier verifyCaller (address _address) {\n    require(msg.sender == _address); \n    _;\n  }\n\n  // Define a modifier that checks if the paid amount is sufficient to cover the price\n  modifier paidEnough(uint _price) { \n    require(msg.value >= _price); \n    _;\n  }\n  \n  // Define a modifier that checks the price and refunds the remaining balance\n  modifier checkValue(uint _upc) {\n    _;\n    uint _price = items[_upc].productPrice;\n    uint amountToReturn = msg.value - _price;\n    payable(items[_upc].consumerID).transfer(amountToReturn);\n  }\n\n  // Define a modifier that checks if an item.state of a upc is Harvested\n  modifier harvested(uint _upc) {\n    require(items[_upc].itemState == State.Harvested, \"Item state must be Harvested\");\n    _;\n  }\n\n  // Define a modifier that checks if an item.state of a upc is Processed\n  modifier processed(uint _upc) {\n    require(items[_upc].itemState == State.Processed,\"Item state must be Processed\");\n    _;\n  }\n  \n  // Define a modifier that checks if an item.state of a upc is Packed\n  modifier packed(uint _upc) {\n    require(items[_upc].itemState == State.Packed,\"Item state must be Packed\");\n    _;\n  }\n\n  // Define a modifier that checks if an item.state of a upc is ForSale\n  modifier forSale(uint _upc) {\n    require(items[_upc].itemState == State.ForSale,\"Item state must be ForSale\");\n    _;\n  }\n\n  // Define a modifier that checks if an item.state of a upc is Sold\n  modifier sold(uint _upc) {\n    require(items[_upc].itemState == State.Sold,\"Item state must be Sold\");\n    _;\n  }\n  \n  // Define a modifier that checks if an item.state of a upc is Shipped\n  modifier shipped(uint _upc) {\n    require(items[_upc].itemState == State.Shipped,\"Item state must be Shipped\");\n    _;\n  }\n\n  // Define a modifier that checks if an item.state of a upc is Received\n  modifier received(uint _upc) {\n    require(items[_upc].itemState == State.Received,\"Item state must be Received\");\n    _;\n  }\n\n  // Define a modifier that checks if an item.state of a upc is Purchased\n  modifier purchased(uint _upc) {\n    require(items[_upc].itemState == State.Purchased,\"Item state must be Purchased\");\n    _;\n  }\n\n  // In the constructor set 'owner' to the address that instantiated the contract\n  // and set 'sku' to 1\n  // and set 'upc' to 1\n  constructor() payable {\n    sku = 1;\n    upc = 1;\n  }\n\n  // Define a function 'kill' if required\n  // function kill() public {\n  //   if (msg.sender == owner) {\n  //     selfdestruct(owner);\n  //   }\n  // }\n\n  // Define a function 'harvestItem' that allows a farmer to mark an item 'Harvested'\n  function harvestItem(uint _upc, address _originFarmerID, string memory _originFarmName, string memory _originFarmInformation, string memory  _originFarmLatitude, string memory _originFarmLongitude, string memory  _productNotes) public \n  {\n    // Add the new item as part of Harvest\n    Item memory item;\n    item.sku = sku;\n    item.upc = _upc;\n    item.ownerID = msg.sender;\n    item.originFarmerID = _originFarmerID;\n    item.originFarmName = _originFarmName;\n    item.originFarmInformation = _originFarmInformation;\n    item.originFarmLatitude = _originFarmLatitude;\n    item.originFarmLongitude = _originFarmLongitude;\n    item.productID = _upc + sku;\n    item.productNotes = _productNotes;\n    items[_upc] = item;\n\n    // Increment sku\n    sku = sku + 1;\n    // Emit the appropriate event\n    emit Harvested(_upc);\n  }\n\n  // Define a function 'processtItem' that allows a farmer to mark an item 'Processed'\n  function processItem(uint _upc) public \n  // Call modifier to check if upc has passed previous supply chain stage\n    harvested(_upc)\n  // Call modifier to verify caller of this function\n    onlyFarmer\n    {\n      // Update the appropriate fields\n      items[_upc].itemState = State.Processed;\n\n      // Emit the appropriate event\n      emit Processed(_upc);\n    }\n\n  // Define a function 'packItem' that allows a farmer to mark an item 'Packed'\n  function packItem(uint _upc) public \n  // Call modifier to check if upc has passed previous supply chain stage\n    processed(_upc)\n  // Call modifier to verify caller of this function\n    onlyFarmer\n  {\n    // Update the appropriate fields\n    items[_upc].itemState = State.Packed;\n\n    // Emit the appropriate event\n    emit Packed(_upc);\n  }\n\n  // Define a function 'sellItem' that allows a farmer to mark an item 'ForSale'\n  function sellItem(uint _upc, uint _price) public \n  // Call modifier to check if upc has passed previous supply chain stage\n    packed(_upc)\n  // Call modifier to verify caller of this function\n  {\n    // Update the appropriate fields\n    items[_upc].itemState = State.ForSale;\n    items[_upc].productPrice = _price;\n\n    // Emit the appropriate event\n    emit ForSale(_upc);\n  }\n\n  // Define a function 'buyItem' that allows the disributor to mark an item 'Sold'\n  // Use the above defined modifiers to check if the item is available for sale, if the buyer has paid enough, \n  // and any excess ether sent is refunded back to the buyer\n  function buyItem(uint _upc) public payable \n    // Call modifier to check if upc has passed previous supply chain stage\n    forSale(_upc)\n    // Call modifer to check if buyer has paid enough\n    paidEnough(items[_upc].productPrice)\n    // Call modifer to send any excess ether back to buyer\n    checkValue(_upc)\n    onlyDistributor\n  {\n    // Update the appropriate fields - ownerID, distributorID, itemState\n    items[_upc].itemState = State.Sold;\n    items[_upc].ownerID = msg.sender;\n    items[_upc].distributorID = msg.sender;\n\n    // Transfer money to farmer\n    uint itemPrice = items[_upc].productPrice;\n    payable(items[_upc].originFarmerID).transfer(itemPrice);\n\n    // emit the appropriate event\n    emit Sold(_upc); \n  }\n\n  // Define a function 'shipItem' that allows the distributor to mark an item 'Shipped'\n  // Use the above modifers to check if the item is sold\n  function shipItem(uint _upc) public \n    // Call modifier to check if upc has passed previous supply chain stage\n    sold(_upc)\n    // Call modifier to verify caller of this function\n    onlyDistributor\n  {\n    // Update the appropriate fields\n    items[_upc].itemState = State.Shipped;\n    items[_upc].distributorID = msg.sender;\n    // Emit the appropriate event\n    emit Shipped(_upc);\n  }\n\n  // Define a function 'receiveItem' that allows the retailer to mark an item 'Received'\n  // Use the above modifiers to check if the item is shipped\n  function receiveItem(uint _upc) public \n    // Call modifier to check if upc has passed previous supply chain stage\n    shipped(_upc)\n    // Access Control List enforced by calling Smart Contract / DApp\n    onlyRetailer\n  {\n    // Update the appropriate fields - ownerID, retailerID, itemState\n    items[_upc].ownerID = msg.sender;\n    items[_upc].retailerID = msg.sender;\n    items[_upc].itemState = State.Received;\n    // Emit the appropriate event\n    emit Received(_upc);\n  }\n\n  // Define a function 'purchaseItem' that allows the consumer to mark an item 'Purchased'\n  // Use the above modifiers to check if the item is received\n  function purchaseItem(uint _upc) public \n    // Call modifier to check if upc has passed previous supply chain stage\n    received(_upc)\n    // Access Control List enforced by calling Smart Contract / DApp\n    onlyConsumer\n   {\n    // Update the appropriate fields - ownerID, consumerID, itemState\n    items[_upc].ownerID = msg.sender;\n    items[_upc].consumerID = msg.sender;\n    items[_upc].itemState = State.Purchased;\n    // Emit the appropriate event\n    emit Purchased(_upc);\n  }\n\n  // Define a function 'fetchItemBufferOne' that fetches the data\n  function fetchItemBufferOne(uint _upc) public view returns \n  (\n  uint    itemSKU,\n  uint    itemUPC,\n  address ownerID,\n  address originFarmerID,\n  string memory originFarmName,\n  string memory originFarmInformation,\n  string memory originFarmLatitude,\n  string memory originFarmLongitude\n  ) \n  {\n  // Assign values to the 8 parameters\n  itemSKU = items[_upc].sku;\n  itemUPC = items[_upc].upc;\n  ownerID = items[_upc].ownerID;\n  originFarmerID = items[_upc].originFarmerID;\n  originFarmName = items[_upc].originFarmName;\n  originFarmInformation = items[_upc].originFarmInformation;\n  originFarmLatitude = items[_upc].originFarmLatitude;\n  originFarmLongitude = items[_upc].originFarmLongitude;\n\n    \n  return \n  (\n  itemSKU,\n  itemUPC,\n  ownerID,\n  originFarmerID,\n  originFarmName,\n  originFarmInformation,\n  originFarmLatitude,\n  originFarmLongitude\n  );\n  }\n\n  // Define a function 'fetchItemBufferTwo' that fetches the data\n  function fetchItemBufferTwo(uint _upc) public view returns \n  (\n  uint    itemSKU,\n  uint    itemUPC,\n  uint    productID,\n  string  memory productNotes,\n  uint    productPrice,\n  uint    itemState,\n  address distributorID,\n  address retailerID,\n  address consumerID\n  ) \n  {\n    // Assign values to the 9 parameters\n    itemSKU = items[_upc].sku;\n    itemUPC = items[_upc].upc;\n    productID = items[_upc].productID;\n    productNotes = items[_upc].productNotes;\n    productPrice = items[_upc].productPrice;\n    itemState = uint(items[_upc].itemState);\n    distributorID = items[_upc].distributorID;\n    retailerID = items[_upc].retailerID;\n    consumerID = items[_upc].consumerID;\n\n    \n  return \n  (\n  itemSKU,\n  itemUPC,\n  productID,\n  productNotes,\n  productPrice,\n  itemState,\n  distributorID,\n  retailerID,\n  consumerID\n  );\n  }\n}\n",
  "sourcePath": "/home/altimario/removeme/BlockchainSupplyChain/contracts/coffeebase/SupplyChain.sol",
  "compiler": {
    "name": "solc",
    "version": "0.8.17+commit.8df45f5f.Emscripten.clang"
  },
  "schemaVersion": "3.4.13",
  "updatedAt": "2023-03-07T14:06:01.709Z",
  "networkType": "ethereum",
  "devdoc": {
    "kind": "dev",
    "methods": {},
    "version": 1
  },
  "userdoc": {
    "kind": "user",
    "methods": {
      "isOwner()": {
        "notice": "Check if the calling address is the owner of the contract"
      },
      "owner()": {
        "notice": "Look up the address of the owner"
      },
      "renounceOwnership()": {
        "notice": "Define a function to renounce ownerhip"
      },
      "transferOwnership(address)": {
        "notice": "Define a public function to transfer ownership"
      }
    },
    "version": 1
  }
}